{
  "_format": "hh-sol-artifact-1",
  "contractName": "GroundfloorNoteToken",
  "sourceName": "contracts/GroundfloorNoteToken.sol",
  "abi": [
    {
      "inputs": [
        {
          "internalType": "address",
          "name": "defaultAdmin",
          "type": "address"
        },
        {
          "internalType": "uint256",
          "name": "totalSupply_",
          "type": "uint256"
        }
      ],
      "stateMutability": "nonpayable",
      "type": "constructor"
    },
    {
      "inputs": [],
      "name": "AccessControlBadConfirmation",
      "type": "error"
    },
    {
      "inputs": [
        {
          "internalType": "address",
          "name": "account",
          "type": "address"
        },
        {
          "internalType": "bytes32",
          "name": "neededRole",
          "type": "bytes32"
        }
      ],
      "name": "AccessControlUnauthorizedAccount",
      "type": "error"
    },
    {
      "inputs": [
        {
          "internalType": "address",
          "name": "sender",
          "type": "address"
        },
        {
          "internalType": "uint256",
          "name": "tokenId",
          "type": "uint256"
        },
        {
          "internalType": "address",
          "name": "owner",
          "type": "address"
        }
      ],
      "name": "ERC721IncorrectOwner",
      "type": "error"
    },
    {
      "inputs": [
        {
          "internalType": "address",
          "name": "operator",
          "type": "address"
        },
        {
          "internalType": "uint256",
          "name": "tokenId",
          "type": "uint256"
        }
      ],
      "name": "ERC721InsufficientApproval",
      "type": "error"
    },
    {
      "inputs": [
        {
          "internalType": "address",
          "name": "approver",
          "type": "address"
        }
      ],
      "name": "ERC721InvalidApprover",
      "type": "error"
    },
    {
      "inputs": [
        {
          "internalType": "address",
          "name": "operator",
          "type": "address"
        }
      ],
      "name": "ERC721InvalidOperator",
      "type": "error"
    },
    {
      "inputs": [
        {
          "internalType": "address",
          "name": "owner",
          "type": "address"
        }
      ],
      "name": "ERC721InvalidOwner",
      "type": "error"
    },
    {
      "inputs": [
        {
          "internalType": "address",
          "name": "receiver",
          "type": "address"
        }
      ],
      "name": "ERC721InvalidReceiver",
      "type": "error"
    },
    {
      "inputs": [
        {
          "internalType": "address",
          "name": "sender",
          "type": "address"
        }
      ],
      "name": "ERC721InvalidSender",
      "type": "error"
    },
    {
      "inputs": [
        {
          "internalType": "uint256",
          "name": "tokenId",
          "type": "uint256"
        }
      ],
      "name": "ERC721NonexistentToken",
      "type": "error"
    },
    {
      "inputs": [],
      "name": "EnforcedPause",
      "type": "error"
    },
    {
      "inputs": [],
      "name": "ExpectedPause",
      "type": "error"
    },
    {
      "anonymous": false,
      "inputs": [
        {
          "indexed": true,
          "internalType": "address",
          "name": "owner",
          "type": "address"
        },
        {
          "indexed": true,
          "internalType": "address",
          "name": "approved",
          "type": "address"
        },
        {
          "indexed": true,
          "internalType": "uint256",
          "name": "tokenId",
          "type": "uint256"
        }
      ],
      "name": "Approval",
      "type": "event"
    },
    {
      "anonymous": false,
      "inputs": [
        {
          "indexed": true,
          "internalType": "address",
          "name": "owner",
          "type": "address"
        },
        {
          "indexed": true,
          "internalType": "address",
          "name": "operator",
          "type": "address"
        },
        {
          "indexed": false,
          "internalType": "bool",
          "name": "approved",
          "type": "bool"
        }
      ],
      "name": "ApprovalForAll",
      "type": "event"
    },
    {
      "anonymous": false,
      "inputs": [
        {
          "indexed": false,
          "internalType": "uint256",
          "name": "_fromTokenId",
          "type": "uint256"
        },
        {
          "indexed": false,
          "internalType": "uint256",
          "name": "_toTokenId",
          "type": "uint256"
        }
      ],
      "name": "BatchMetadataUpdate",
      "type": "event"
    },
    {
      "anonymous": false,
      "inputs": [
        {
          "indexed": false,
          "internalType": "uint256",
          "name": "_tokenId",
          "type": "uint256"
        }
      ],
      "name": "MetadataUpdate",
      "type": "event"
    },
    {
      "anonymous": false,
      "inputs": [
        {
          "indexed": false,
          "internalType": "uint256",
          "name": "tokenId",
          "type": "uint256"
        },
        {
          "indexed": false,
          "internalType": "uint256",
          "name": "amount",
          "type": "uint256"
        }
      ],
      "name": "NoteRepaid",
      "type": "event"
    },
    {
      "anonymous": false,
      "inputs": [
        {
          "indexed": false,
          "internalType": "uint256",
          "name": "tokens",
          "type": "uint256"
        },
        {
          "indexed": false,
          "internalType": "uint256",
          "name": "amount",
          "type": "uint256"
        },
        {
          "indexed": false,
          "internalType": "uint256",
          "name": "tokenRepaymentAmount",
          "type": "uint256"
        }
      ],
      "name": "NotesFunded",
      "type": "event"
    },
    {
      "anonymous": false,
      "inputs": [
        {
          "indexed": false,
          "internalType": "address",
          "name": "account",
          "type": "address"
        }
      ],
      "name": "Paused",
      "type": "event"
    },
    {
      "anonymous": false,
      "inputs": [
        {
          "indexed": true,
          "internalType": "bytes32",
          "name": "role",
          "type": "bytes32"
        },
        {
          "indexed": true,
          "internalType": "bytes32",
          "name": "previousAdminRole",
          "type": "bytes32"
        },
        {
          "indexed": true,
          "internalType": "bytes32",
          "name": "newAdminRole",
          "type": "bytes32"
        }
      ],
      "name": "RoleAdminChanged",
      "type": "event"
    },
    {
      "anonymous": false,
      "inputs": [
        {
          "indexed": true,
          "internalType": "bytes32",
          "name": "role",
          "type": "bytes32"
        },
        {
          "indexed": true,
          "internalType": "address",
          "name": "account",
          "type": "address"
        },
        {
          "indexed": true,
          "internalType": "address",
          "name": "sender",
          "type": "address"
        }
      ],
      "name": "RoleGranted",
      "type": "event"
    },
    {
      "anonymous": false,
      "inputs": [
        {
          "indexed": true,
          "internalType": "bytes32",
          "name": "role",
          "type": "bytes32"
        },
        {
          "indexed": true,
          "internalType": "address",
          "name": "account",
          "type": "address"
        },
        {
          "indexed": true,
          "internalType": "address",
          "name": "sender",
          "type": "address"
        }
      ],
      "name": "RoleRevoked",
      "type": "event"
    },
    {
      "anonymous": false,
      "inputs": [
        {
          "indexed": true,
          "internalType": "address",
          "name": "from",
          "type": "address"
        },
        {
          "indexed": true,
          "internalType": "address",
          "name": "to",
          "type": "address"
        },
        {
          "indexed": true,
          "internalType": "uint256",
          "name": "tokenId",
          "type": "uint256"
        }
      ],
      "name": "Transfer",
      "type": "event"
    },
    {
      "anonymous": false,
      "inputs": [
        {
          "indexed": false,
          "internalType": "address",
          "name": "account",
          "type": "address"
        }
      ],
      "name": "Unpaused",
      "type": "event"
    },
    {
      "inputs": [],
      "name": "DEFAULT_ADMIN_ROLE",
      "outputs": [
        {
          "internalType": "bytes32",
          "name": "",
          "type": "bytes32"
        }
      ],
      "stateMutability": "view",
      "type": "function"
    },
    {
      "inputs": [],
      "name": "MINTER_ROLE",
      "outputs": [
        {
          "internalType": "bytes32",
          "name": "",
          "type": "bytes32"
        }
      ],
      "stateMutability": "view",
      "type": "function"
    },
    {
      "inputs": [],
      "name": "PAUSER_ROLE",
      "outputs": [
        {
          "internalType": "bytes32",
          "name": "",
          "type": "bytes32"
        }
      ],
      "stateMutability": "view",
      "type": "function"
    },
    {
      "inputs": [],
      "name": "PAYER_ROLE",
      "outputs": [
        {
          "internalType": "bytes32",
          "name": "",
          "type": "bytes32"
        }
      ],
      "stateMutability": "view",
      "type": "function"
    },
    {
      "inputs": [
        {
          "internalType": "address",
          "name": "to",
          "type": "address"
        },
        {
          "internalType": "uint256",
          "name": "tokenId",
          "type": "uint256"
        }
      ],
      "name": "approve",
      "outputs": [],
      "stateMutability": "nonpayable",
      "type": "function"
    },
    {
      "inputs": [],
      "name": "balanceInContract",
      "outputs": [
        {
          "internalType": "uint256",
          "name": "",
          "type": "uint256"
        }
      ],
      "stateMutability": "view",
      "type": "function"
    },
    {
      "inputs": [
        {
          "internalType": "address",
          "name": "owner",
          "type": "address"
        }
      ],
      "name": "balanceOf",
      "outputs": [
        {
          "internalType": "uint256",
          "name": "",
          "type": "uint256"
        }
      ],
      "stateMutability": "view",
      "type": "function"
    },
    {
      "inputs": [
        {
          "internalType": "uint256",
          "name": "tokenId",
          "type": "uint256"
        }
      ],
      "name": "burn",
      "outputs": [],
      "stateMutability": "nonpayable",
      "type": "function"
    },
    {
      "inputs": [
        {
          "internalType": "uint256",
          "name": "tokenId",
          "type": "uint256"
        }
      ],
      "name": "getApproved",
      "outputs": [
        {
          "internalType": "address",
          "name": "",
          "type": "address"
        }
      ],
      "stateMutability": "view",
      "type": "function"
    },
    {
      "inputs": [
        {
          "internalType": "bytes32",
          "name": "role",
          "type": "bytes32"
        }
      ],
      "name": "getRoleAdmin",
      "outputs": [
        {
          "internalType": "bytes32",
          "name": "",
          "type": "bytes32"
        }
      ],
      "stateMutability": "view",
      "type": "function"
    },
    {
      "inputs": [
        {
          "internalType": "bytes32",
          "name": "role",
          "type": "bytes32"
        },
        {
          "internalType": "address",
          "name": "account",
          "type": "address"
        }
      ],
      "name": "grantRole",
      "outputs": [],
      "stateMutability": "nonpayable",
      "type": "function"
    },
    {
      "inputs": [
        {
          "internalType": "bytes32",
          "name": "role",
          "type": "bytes32"
        },
        {
          "internalType": "address",
          "name": "account",
          "type": "address"
        }
      ],
      "name": "hasRole",
      "outputs": [
        {
          "internalType": "bool",
          "name": "",
          "type": "bool"
        }
      ],
      "stateMutability": "view",
      "type": "function"
    },
    {
      "inputs": [
        {
          "internalType": "address",
          "name": "owner",
          "type": "address"
        },
        {
          "internalType": "address",
          "name": "operator",
          "type": "address"
        }
      ],
      "name": "isApprovedForAll",
      "outputs": [
        {
          "internalType": "bool",
          "name": "",
          "type": "bool"
        }
      ],
      "stateMutability": "view",
      "type": "function"
    },
    {
      "inputs": [],
      "name": "name",
      "outputs": [
        {
          "internalType": "string",
          "name": "",
          "type": "string"
        }
      ],
      "stateMutability": "view",
      "type": "function"
    },
    {
      "inputs": [
        {
          "internalType": "uint256",
          "name": "tokenId",
          "type": "uint256"
        }
      ],
      "name": "ownerOf",
      "outputs": [
        {
          "internalType": "address",
          "name": "",
          "type": "address"
        }
      ],
      "stateMutability": "view",
      "type": "function"
    },
    {
      "inputs": [],
      "name": "pause",
      "outputs": [],
      "stateMutability": "nonpayable",
      "type": "function"
    },
    {
      "inputs": [],
      "name": "paused",
      "outputs": [
        {
          "internalType": "bool",
          "name": "",
          "type": "bool"
        }
      ],
      "stateMutability": "view",
      "type": "function"
    },
    {
      "inputs": [
        {
          "internalType": "bytes32",
          "name": "role",
          "type": "bytes32"
        },
        {
          "internalType": "address",
          "name": "callerConfirmation",
          "type": "address"
        }
      ],
      "name": "renounceRole",
      "outputs": [],
      "stateMutability": "nonpayable",
      "type": "function"
    },
    {
      "inputs": [],
      "name": "repayContract",
      "outputs": [],
      "stateMutability": "payable",
      "type": "function"
    },
    {
      "inputs": [
        {
          "internalType": "bytes32",
          "name": "role",
          "type": "bytes32"
        },
        {
          "internalType": "address",
          "name": "account",
          "type": "address"
        }
      ],
      "name": "revokeRole",
      "outputs": [],
      "stateMutability": "nonpayable",
      "type": "function"
    },
    {
      "inputs": [
        {
          "internalType": "address",
          "name": "to",
          "type": "address"
        },
        {
          "internalType": "string",
          "name": "uri",
          "type": "string"
        }
      ],
      "name": "safeMint",
      "outputs": [],
      "stateMutability": "nonpayable",
      "type": "function"
    },
    {
      "inputs": [
        {
          "internalType": "address",
          "name": "from",
          "type": "address"
        },
        {
          "internalType": "address",
          "name": "to",
          "type": "address"
        },
        {
          "internalType": "uint256",
          "name": "tokenId",
          "type": "uint256"
        }
      ],
      "name": "safeTransferFrom",
      "outputs": [],
      "stateMutability": "nonpayable",
      "type": "function"
    },
    {
      "inputs": [
        {
          "internalType": "address",
          "name": "from",
          "type": "address"
        },
        {
          "internalType": "address",
          "name": "to",
          "type": "address"
        },
        {
          "internalType": "uint256",
          "name": "tokenId",
          "type": "uint256"
        },
        {
          "internalType": "bytes",
          "name": "data",
          "type": "bytes"
        }
      ],
      "name": "safeTransferFrom",
      "outputs": [],
      "stateMutability": "nonpayable",
      "type": "function"
    },
    {
      "inputs": [
        {
          "internalType": "address",
          "name": "operator",
          "type": "address"
        },
        {
          "internalType": "bool",
          "name": "approved",
          "type": "bool"
        }
      ],
      "name": "setApprovalForAll",
      "outputs": [],
      "stateMutability": "nonpayable",
      "type": "function"
    },
    {
      "inputs": [
        {
          "internalType": "bytes4",
          "name": "interfaceId",
          "type": "bytes4"
        }
      ],
      "name": "supportsInterface",
      "outputs": [
        {
          "internalType": "bool",
          "name": "",
          "type": "bool"
        }
      ],
      "stateMutability": "view",
      "type": "function"
    },
    {
      "inputs": [],
      "name": "symbol",
      "outputs": [
        {
          "internalType": "string",
          "name": "",
          "type": "string"
        }
      ],
      "stateMutability": "view",
      "type": "function"
    },
    {
      "inputs": [
        {
          "internalType": "uint256",
          "name": "tokenId",
          "type": "uint256"
        }
      ],
      "name": "tokenURI",
      "outputs": [
        {
          "internalType": "string",
          "name": "",
          "type": "string"
        }
      ],
      "stateMutability": "view",
      "type": "function"
    },
    {
      "inputs": [
        {
          "internalType": "address",
          "name": "from",
          "type": "address"
        },
        {
          "internalType": "address",
          "name": "to",
          "type": "address"
        },
        {
          "internalType": "uint256",
          "name": "tokenId",
          "type": "uint256"
        }
      ],
      "name": "transferFrom",
      "outputs": [],
      "stateMutability": "nonpayable",
      "type": "function"
    },
    {
      "inputs": [],
      "name": "unpause",
      "outputs": [],
      "stateMutability": "nonpayable",
      "type": "function"
    },
    {
      "inputs": [],
      "name": "valueInContract",
      "outputs": [
        {
          "internalType": "uint256",
          "name": "",
          "type": "uint256"
        }
      ],
      "stateMutability": "view",
      "type": "function"
    },
    {
      "inputs": [
        {
          "internalType": "uint256",
          "name": "tokenId",
          "type": "uint256"
        }
      ],
      "name": "withdrawFunds",
      "outputs": [],
      "stateMutability": "payable",
      "type": "function"
    }
  ],
  "bytecode": "0x60806040526000600c553480156200001657600080fd5b50604051620026673803806200266783398101604081905262000039916200034f565b6040518060400160405280601481526020017f47726f756e64666c6f6f724e6f7465546f6b656e0000000000000000000000008152506040518060400160405280600481526020016311d1939560e21b81525081600090816200009d919062000432565b506001620000ac828262000432565b50506007805460ff1916905550604080518082019091526012815271436f6e7472616374206465706c6f79696e6760701b6020820152620000ed90620001c6565b600981905560408051808201909152601681527f546f74616c20737570706c792073657420746f20257300000000000000000000602082015262000132908262000214565b6200013f60008362000265565b506200016c7f9f2df0fed2c77648de5860a4cc508cd0818c85b8b8a1ab4ceeef8d981c8956a63362000265565b50620001997f65d7a28e3265b37a6474929f336521b332c1681b933f6cb9f3376673440d862a3362000265565b50620001be6040518060600160405280602781526020016200264060279139620001c6565b505062000586565b6200021181604051602401620001dd919062000546565b60408051601f198184030181529190526020810180516001600160e01b0390811663104c13eb60e21b179091526200031816565b50565b6200026182826040516024016200022d92919062000562565b60408051601f198184030181529190526020810180516001600160e01b03908116632d839cb360e21b179091526200031816565b5050565b60008281526008602090815260408083206001600160a01b038516845290915281205460ff166200030e5760008381526008602090815260408083206001600160a01b03861684529091529020805460ff19166001179055620002c53390565b6001600160a01b0316826001600160a01b0316847f2f8788117e7eff1d82e926ec794901d17c78024a50270940304540a733656f0d60405160405180910390a450600162000312565b5060005b92915050565b62000211816200032e60201b62000d351760201c565b60006a636f6e736f6c652e6c6f679050600080835160208501845afa505050565b600080604083850312156200036357600080fd5b82516001600160a01b03811681146200037b57600080fd5b6020939093015192949293505050565b634e487b7160e01b600052604160045260246000fd5b600181811c90821680620003b657607f821691505b602082108103620003d757634e487b7160e01b600052602260045260246000fd5b50919050565b601f8211156200042d576000816000526020600020601f850160051c81016020861015620004085750805b601f850160051c820191505b81811015620004295782815560010162000414565b5050505b505050565b81516001600160401b038111156200044e576200044e6200038b565b62000466816200045f8454620003a1565b84620003dd565b602080601f8311600181146200049e5760008415620004855750858301515b600019600386901b1c1916600185901b17855562000429565b600085815260208120601f198616915b82811015620004cf57888601518255948401946001909101908401620004ae565b5085821015620004ee5787850151600019600388901b60f8161c191681555b5050505050600190811b01905550565b6000815180845260005b81811015620005265760208185018101518683018201520162000508565b506000602082860101526020601f19601f83011685010191505092915050565b6020815260006200055b6020830184620004fe565b9392505050565b604081526000620005776040830185620004fe565b90508260208301529392505050565b6120aa80620005966000396000f3fe6080604052600436106101d85760003560e01c806377f050b011610102578063b88d4fde11610095578063d539139311610064578063d539139314610542578063d547741f14610576578063e63ab1e914610596578063e985e9c5146105ca57600080fd5b8063b88d4fde146104e2578063ba2cc27814610498578063c87b56dd14610502578063d204c45e1461052257600080fd5b806399c8993f116100d157806399c8993f1461049057806399f4a5ab14610498578063a217fddf146104ad578063a22cb465146104c257600080fd5b806377f050b0146103ec5780638456cb591461042057806391d148541461043557806395d89b411461047b57600080fd5b80632f2ff15d1161017a57806342966c681161014957806342966c68146103745780635c975abb146103945780636352211e146103ac57806370a08231146103cc57600080fd5b80632f2ff15d146102ff57806336568abe1461031f5780633f4ba83a1461033f57806342842e0e1461035457600080fd5b8063095ea7b3116101b6578063095ea7b31461026c578063155dd5ee1461028e57806323b872dd146102a1578063248a9ca3146102c157600080fd5b806301ffc9a7146101dd57806306fdde0314610212578063081812fc14610234575b600080fd5b3480156101e957600080fd5b506101fd6101f8366004611ae3565b610613565b60405190151581526020015b60405180910390f35b34801561021e57600080fd5b50610227610624565b6040516102099190611b50565b34801561024057600080fd5b5061025461024f366004611b63565b6106b6565b6040516001600160a01b039091168152602001610209565b34801561027857600080fd5b5061028c610287366004611b98565b6106df565b005b61028c61029c366004611b63565b6106ee565b3480156102ad57600080fd5b5061028c6102bc366004611bc2565b61088d565b3480156102cd57600080fd5b506102f16102dc366004611b63565b60009081526008602052604090206001015490565b604051908152602001610209565b34801561030b57600080fd5b5061028c61031a366004611bfe565b610931565b34801561032b57600080fd5b5061028c61033a366004611bfe565b610956565b34801561034b57600080fd5b5061028c6109a7565b34801561036057600080fd5b5061028c61036f366004611bc2565b6109dc565b34801561038057600080fd5b5061028c61038f366004611b63565b6109f7565b3480156103a057600080fd5b5060075460ff166101fd565b3480156103b857600080fd5b506102546103c7366004611b63565b610a03565b3480156103d857600080fd5b506102f16103e7366004611c2a565b610a0e565b3480156103f857600080fd5b506102f17f8ec07e268e32cae7f300b49ad34f20106d088445cb9d9b2d62cbd864638308b281565b34801561042c57600080fd5b5061028c610a6f565b34801561044157600080fd5b506101fd610450366004611bfe565b60009182526008602090815260408084206001600160a01b0393909316845291905290205460ff1690565b34801561048757600080fd5b50610227610aa1565b61028c610ab0565b3480156104a457600080fd5b50600c546102f1565b3480156104b957600080fd5b506102f1600081565b3480156104ce57600080fd5b5061028c6104dd366004611c45565b610c15565b3480156104ee57600080fd5b5061028c6104fd366004611d0d565b610c20565b34801561050e57600080fd5b5061022761051d366004611b63565b610c37565b34801561052e57600080fd5b5061028c61053d366004611d89565b610c42565b34801561054e57600080fd5b506102f17f9f2df0fed2c77648de5860a4cc508cd0818c85b8b8a1ab4ceeef8d981c8956a681565b34801561058257600080fd5b5061028c610591366004611bfe565b610d10565b3480156105a257600080fd5b506102f17f65d7a28e3265b37a6474929f336521b332c1681b933f6cb9f3376673440d862a81565b3480156105d657600080fd5b506101fd6105e5366004611deb565b6001600160a01b03918216600090815260056020908152604080832093909416825291909152205460ff1690565b600061061e82610d56565b92915050565b60606000805461063390611e15565b80601f016020809104026020016040519081016040528092919081815260200182805461065f90611e15565b80156106ac5780601f10610681576101008083540402835291602001916106ac565b820191906000526020600020905b81548152906001019060200180831161068f57829003601f168201915b5050505050905090565b60006106c182610d94565b506000828152600460205260409020546001600160a01b031661061e565b6106ea828233610dcd565b5050565b6000600c541161076b5760405162461bcd60e51b815260206004820152602f60248201527f436f6e7472616374206973206e6f742066756e6465642c20746f6b656e20636160448201527f6e206e6f7420626520726570616964000000000000000000000000000000000060648201526084015b60405180910390fd5b600b54600c5410156107e55760405162461bcd60e51b815260206004820152603060248201527f436f6e747261637420697320756e64657266756e6465642c20746f6b656e206360448201527f616e206e6f7420626520726570616964000000000000000000000000000000006064820152608401610762565b6107ee81610a03565b6001600160a01b03166108fc600b549081150290604051600060405180830381858888f19350505050158015610828573d6000803e3d6000fd5b50600b54600c600082825461083d9190611e65565b9091555061084c9050816109f7565b600b546040805183815260208101929092527f4ca86666a7c5809efefd1dade27f055d7ca02f07ec3b491a9ba6e54850b37bd291015b60405180910390a150565b6001600160a01b0382166108b757604051633250574960e11b815260006004820152602401610762565b60006108c4838333610dda565b9050836001600160a01b0316816001600160a01b03161461092b576040517f64283d7b0000000000000000000000000000000000000000000000000000000081526001600160a01b0380861660048301526024820184905282166044820152606401610762565b50505050565b60008281526008602052604090206001015461094c81610def565b61092b8383610df9565b6001600160a01b0381163314610998576040517f6697b23200000000000000000000000000000000000000000000000000000000815260040160405180910390fd5b6109a28282610ea7565b505050565b7f65d7a28e3265b37a6474929f336521b332c1681b933f6cb9f3376673440d862a6109d181610def565b6109d9610f2e565b50565b6109a283838360405180602001604052806000815250610c20565b6106ea60008233610dda565b600061061e82610d94565b60006001600160a01b038216610a53576040517f89c62b6400000000000000000000000000000000000000000000000000000000815260006004820152602401610762565b506001600160a01b031660009081526003602052604090205490565b7f65d7a28e3265b37a6474929f336521b332c1681b933f6cb9f3376673440d862a610a9981610def565b6109d9610f80565b60606001805461063390611e15565b7f8ec07e268e32cae7f300b49ad34f20106d088445cb9d9b2d62cbd864638308b2610ada81610def565b600954600a541115610b545760405162461bcd60e51b815260206004820152603660248201527f496e76616c696420636f6e74726163742c206d6f726520746f6b656e7320697360448201527f73756564207468656e20746f74616c20737570706c79000000000000000000006064820152608401610762565b60003411610ba45760405162461bcd60e51b815260206004820152600d60248201527f496e76616c69642076616c7565000000000000000000000000000000000000006044820152606401610762565b34600c6000828254610bb69190611e78565b9091555050600a54600c54610bcb9190611e8b565b600b819055600a54600c546040805192835260208301919091528101919091527f5472aaa0aa177ebfb80a54ede16ace3d4c0be00bbc44cd80de213449b6c485ae90606001610882565b6106ea338383610fbd565b610c2b84848461088d565b61092b84848484611075565b606061061e8261119e565b7f9f2df0fed2c77648de5860a4cc508cd0818c85b8b8a1ab4ceeef8d981c8956a6610c6c81610def565b600954600a5410610ce55760405162461bcd60e51b815260206004820152603860248201527f556e61626c6520746f206d696e7420746f6b656e732c20746f6b656e7320697360448201527f737565642065786365656420746f74616c20737570706c7900000000000000006064820152608401610762565b600a805460009182610cf683611ead565b919050559050610d0684826112a7565b61092b81846112c1565b600082815260086020526040902060010154610d2b81610def565b61092b8383610ea7565b60006a636f6e736f6c652e6c6f679050600080835160208501845afa505050565b60006001600160e01b031982167f7965db0b00000000000000000000000000000000000000000000000000000000148061061e575061061e82611311565b6000818152600260205260408120546001600160a01b03168061061e57604051637e27328960e01b815260048101849052602401610762565b6109a2838383600161134f565b6000610de784848461149a565b949350505050565b6109d981336114af565b60008281526008602090815260408083206001600160a01b038516845290915281205460ff16610e9f5760008381526008602090815260408083206001600160a01b03861684529091529020805460ff19166001179055610e573390565b6001600160a01b0316826001600160a01b0316847f2f8788117e7eff1d82e926ec794901d17c78024a50270940304540a733656f0d60405160405180910390a450600161061e565b50600061061e565b60008281526008602090815260408083206001600160a01b038516845290915281205460ff1615610e9f5760008381526008602090815260408083206001600160a01b0386168085529252808320805460ff1916905551339286917ff6391f5c32d9c69d2a47ea670b442974b53935d1edc7fd64eb21e047a839171b9190a450600161061e565b610f3661151d565b6007805460ff191690557f5db9ee0a495bf2e6ff9c91a7834c1ba4fdd244a5e8aa4e537bd38aeae4b073aa335b6040516001600160a01b03909116815260200160405180910390a1565b610f8861155b565b6007805460ff191660011790557f62e78cea01bee320cd4e420270b5ea74000d11b0c9f74754ebdbfc544b05a258610f633390565b6001600160a01b038216611008576040517f5b08ba180000000000000000000000000000000000000000000000000000000081526001600160a01b0383166004820152602401610762565b6001600160a01b03838116600081815260056020908152604080832094871680845294825291829020805460ff191686151590811790915591519182527f17307eab39ab6107e8899845ad3d59bd9653f200f220920489ca2b5937696c31910160405180910390a3505050565b6001600160a01b0383163b1561092b57604051630a85bd0160e11b81526001600160a01b0384169063150b7a02906110b7903390889087908790600401611ec6565b6020604051808303816000875af19250505080156110f2575060408051601f3d908101601f191682019092526110ef91810190611f02565b60015b61115b573d808015611120576040519150601f19603f3d011682016040523d82523d6000602084013e611125565b606091505b50805160000361115357604051633250574960e11b81526001600160a01b0385166004820152602401610762565b805181602001fd5b6001600160e01b03198116630a85bd0160e11b1461119757604051633250574960e11b81526001600160a01b0385166004820152602401610762565b5050505050565b60606111a982610d94565b50600082815260066020526040812080546111c390611e15565b80601f01602080910402602001604051908101604052809291908181526020018280546111ef90611e15565b801561123c5780601f106112115761010080835404028352916020019161123c565b820191906000526020600020905b81548152906001019060200180831161121f57829003601f168201915b50505050509050600061125a60408051602081019091526000815290565b9050805160000361126c575092915050565b81511561129e578082604051602001611286929190611f1f565b60405160208183030381529060405292505050919050565b610de784611598565b6106ea82826040518060200160405280600081525061160d565b60008281526006602052604090206112d98282611f9e565b506040518281527ff8e1a15aba9398e019f0b49df1a4fde98ee17ae345cb5f6b5e2c27f5033e8ce79060200160405180910390a15050565b60006001600160e01b031982167f4906490600000000000000000000000000000000000000000000000000000000148061061e575061061e82611624565b808061136357506001600160a01b03821615155b1561145d57600061137384610d94565b90506001600160a01b0383161580159061139f5750826001600160a01b0316816001600160a01b031614155b80156113d157506001600160a01b0380821660009081526005602090815260408083209387168352929052205460ff16155b15611413576040517fa9fbf51f0000000000000000000000000000000000000000000000000000000081526001600160a01b0384166004820152602401610762565b811561145b5783856001600160a01b0316826001600160a01b03167f8c5be1e5ebec7d5bd14f71427d1e84f3dd0314c0f7b2291e5b200ac8c7c3b92560405160405180910390a45b505b50506000908152600460205260409020805473ffffffffffffffffffffffffffffffffffffffff19166001600160a01b0392909216919091179055565b60006114a461155b565b610de78484846116bf565b60008281526008602090815260408083206001600160a01b038516845290915290205460ff166106ea576040517fe2517d3f0000000000000000000000000000000000000000000000000000000081526001600160a01b038216600482015260248101839052604401610762565b60075460ff16611559576040517f8dfc202b00000000000000000000000000000000000000000000000000000000815260040160405180910390fd5b565b60075460ff1615611559576040517fd93c066500000000000000000000000000000000000000000000000000000000815260040160405180910390fd5b60606115a382610d94565b5060006115bb60408051602081019091526000815290565b905060008151116115db5760405180602001604052806000815250611606565b806115e5846117c5565b6040516020016115f6929190611f1f565b6040516020818303038152906040525b9392505050565b6116178383611865565b6109a26000848484611075565b60006001600160e01b031982167f80ac58cd00000000000000000000000000000000000000000000000000000000148061168757506001600160e01b031982167f5b5e139f00000000000000000000000000000000000000000000000000000000145b8061061e57507f01ffc9a7000000000000000000000000000000000000000000000000000000006001600160e01b031983161461061e565b6000828152600260205260408120546001600160a01b03908116908316156116ec576116ec8184866118e3565b6001600160a01b0381161561172a5761170960008560008061134f565b6001600160a01b038116600090815260036020526040902080546000190190555b6001600160a01b03851615611759576001600160a01b0385166000908152600360205260409020805460010190555b600084815260026020526040808220805473ffffffffffffffffffffffffffffffffffffffff19166001600160a01b0389811691821790925591518793918516917fddf252ad1be2c89b69c2b068fc378daa952ba7f163c4a11628f55a4df523b3ef91a4949350505050565b606060006117d283611960565b600101905060008167ffffffffffffffff8111156117f2576117f2611c81565b6040519080825280601f01601f19166020018201604052801561181c576020820181803683370190505b5090508181016020015b600019017f3031323334353637383961626364656600000000000000000000000000000000600a86061a8153600a850494508461182657509392505050565b6001600160a01b03821661188f57604051633250574960e11b815260006004820152602401610762565b600061189d83836000610dda565b90506001600160a01b038116156109a2576040517f73c6ac6e00000000000000000000000000000000000000000000000000000000815260006004820152602401610762565b6118ee838383611a42565b6109a2576001600160a01b03831661191c57604051637e27328960e01b815260048101829052602401610762565b6040517f177e802f0000000000000000000000000000000000000000000000000000000081526001600160a01b038316600482015260248101829052604401610762565b6000807a184f03e93ff9f4daa797ed6e38ed64bf6a1f01000000000000000083106119a9577a184f03e93ff9f4daa797ed6e38ed64bf6a1f010000000000000000830492506040015b6d04ee2d6d415b85acef810000000083106119d5576d04ee2d6d415b85acef8100000000830492506020015b662386f26fc1000083106119f357662386f26fc10000830492506010015b6305f5e1008310611a0b576305f5e100830492506008015b6127108310611a1f57612710830492506004015b60648310611a31576064830492506002015b600a831061061e5760010192915050565b60006001600160a01b03831615801590610de75750826001600160a01b0316846001600160a01b03161480611a9c57506001600160a01b0380851660009081526005602090815260408083209387168352929052205460ff165b80610de75750506000908152600460205260409020546001600160a01b03908116911614919050565b61155961205e565b6001600160e01b0319811681146109d957600080fd5b600060208284031215611af557600080fd5b813561160681611acd565b60005b83811015611b1b578181015183820152602001611b03565b50506000910152565b60008151808452611b3c816020860160208601611b00565b601f01601f19169290920160200192915050565b6020815260006116066020830184611b24565b600060208284031215611b7557600080fd5b5035919050565b80356001600160a01b0381168114611b9357600080fd5b919050565b60008060408385031215611bab57600080fd5b611bb483611b7c565b946020939093013593505050565b600080600060608486031215611bd757600080fd5b611be084611b7c565b9250611bee60208501611b7c565b9150604084013590509250925092565b60008060408385031215611c1157600080fd5b82359150611c2160208401611b7c565b90509250929050565b600060208284031215611c3c57600080fd5b61160682611b7c565b60008060408385031215611c5857600080fd5b611c6183611b7c565b915060208301358015158114611c7657600080fd5b809150509250929050565b634e487b7160e01b600052604160045260246000fd5b600067ffffffffffffffff80841115611cb257611cb2611c81565b604051601f8501601f19908116603f01168101908282118183101715611cda57611cda611c81565b81604052809350858152868686011115611cf357600080fd5b858560208301376000602087830101525050509392505050565b60008060008060808587031215611d2357600080fd5b611d2c85611b7c565b9350611d3a60208601611b7c565b925060408501359150606085013567ffffffffffffffff811115611d5d57600080fd5b8501601f81018713611d6e57600080fd5b611d7d87823560208401611c97565b91505092959194509250565b60008060408385031215611d9c57600080fd5b611da583611b7c565b9150602083013567ffffffffffffffff811115611dc157600080fd5b8301601f81018513611dd257600080fd5b611de185823560208401611c97565b9150509250929050565b60008060408385031215611dfe57600080fd5b611e0783611b7c565b9150611c2160208401611b7c565b600181811c90821680611e2957607f821691505b602082108103611e4957634e487b7160e01b600052602260045260246000fd5b50919050565b634e487b7160e01b600052601160045260246000fd5b8181038181111561061e5761061e611e4f565b8082018082111561061e5761061e611e4f565b600082611ea857634e487b7160e01b600052601260045260246000fd5b500490565b600060018201611ebf57611ebf611e4f565b5060010190565b60006001600160a01b03808716835280861660208401525083604083015260806060830152611ef86080830184611b24565b9695505050505050565b600060208284031215611f1457600080fd5b815161160681611acd565b60008351611f31818460208801611b00565b835190830190611f45818360208801611b00565b01949350505050565b601f8211156109a2576000816000526020600020601f850160051c81016020861015611f775750805b601f850160051c820191505b81811015611f9657828155600101611f83565b505050505050565b815167ffffffffffffffff811115611fb857611fb8611c81565b611fcc81611fc68454611e15565b84611f4e565b602080601f8311600181146120015760008415611fe95750858301515b600019600386901b1c1916600185901b178555611f96565b600085815260208120601f198616915b8281101561203057888601518255948401946001909101908401612011565b508582101561204e5787850151600019600388901b60f8161c191681555b5050505050600190811b01905550565b634e487b7160e01b600052605160045260246000fdfea2646970667358221220ebb9c87bb9704c0d82e742c1b6e5aaff06c129f24f10f11a5350cb2ff0c2f91264736f6c63430008160033536563757269747920726f6c65732061737369676e656420746f20696e697469616c4f776e6572",
  "linkReferences": {},
  "deployedLinkReferences": {}
}